:060000000A128A11FB2F19
:100EC600F301F401732FC730F200692FF20B682F7C
:100ED6006C2F6D2F0130F3070318F40A0030F40766
:100EE60071087402031D792F70087302031C7C2F8E
:100EF6007D2F662F080083160313860183120313C2
:100F06008601081C872F882F892FF82F861606142E
:100F16002830F0002330F1000A128A1163270A12E2
:100F26008A11831203138612F50183120313060E28
:100F3600FF00FF0C7F0C0139FF000130FF06FF0E9A
:100F4600FF0DFF0D06087F06BF397F0686002C3091
:100F5600F0000130F1000A128A1163270A128A1181
:100F66000130FF007F08F5070A307502031CBC2F0D
:100F7600BD2F982F831203130610081CC32FC42FEE
:100F8600C52FF82F061586172830F0002330F100FC
:100F96000A128A1163270A128A1183120313061191
:100FA600F50183120313060C0139FF000130FF0619
:100FB600FF0D06087F06FD397F0686002C30F000FF
:100FC6000130F1000A128A1163270A128A110130D0
:100FD600FF007F08F5070A307502031CF32FF42F74
:100FE600D42F831203138613842F0A128A11002822
:0A0FF600F50183010A128A117E2F13
:02400E00F13F80
:00000001FF
